{
  "contractName": "FUTURE",
  "abi": [
    {
      "inputs": [],
      "stateMutability": "payable",
      "type": "constructor",
      "payable": true
    },
    {
      "anonymous": false,
      "inputs": [
        {
          "indexed": true,
          "internalType": "address",
          "name": "tokenOwner",
          "type": "address"
        },
        {
          "indexed": true,
          "internalType": "address",
          "name": "spender",
          "type": "address"
        },
        {
          "indexed": false,
          "internalType": "uint256",
          "name": "tokens",
          "type": "uint256"
        }
      ],
      "name": "Approval",
      "type": "event"
    },
    {
      "anonymous": false,
      "inputs": [
        {
          "indexed": true,
          "internalType": "address",
          "name": "from",
          "type": "address"
        },
        {
          "indexed": true,
          "internalType": "address",
          "name": "to",
          "type": "address"
        },
        {
          "indexed": false,
          "internalType": "uint256",
          "name": "tokens",
          "type": "uint256"
        }
      ],
      "name": "Transfer",
      "type": "event"
    },
    {
      "inputs": [],
      "name": "_totalSupply",
      "outputs": [
        {
          "internalType": "uint256",
          "name": "",
          "type": "uint256"
        }
      ],
      "stateMutability": "view",
      "type": "function",
      "constant": true
    },
    {
      "inputs": [],
      "name": "decimals",
      "outputs": [
        {
          "internalType": "uint8",
          "name": "",
          "type": "uint8"
        }
      ],
      "stateMutability": "view",
      "type": "function",
      "constant": true
    },
    {
      "inputs": [],
      "name": "name",
      "outputs": [
        {
          "internalType": "string",
          "name": "",
          "type": "string"
        }
      ],
      "stateMutability": "view",
      "type": "function",
      "constant": true
    },
    {
      "inputs": [],
      "name": "owner",
      "outputs": [
        {
          "internalType": "address",
          "name": "",
          "type": "address"
        }
      ],
      "stateMutability": "view",
      "type": "function",
      "constant": true
    },
    {
      "inputs": [],
      "name": "symbol",
      "outputs": [
        {
          "internalType": "string",
          "name": "",
          "type": "string"
        }
      ],
      "stateMutability": "view",
      "type": "function",
      "constant": true
    },
    {
      "inputs": [
        {
          "internalType": "address",
          "name": "tokenOwner",
          "type": "address"
        },
        {
          "internalType": "address",
          "name": "spender",
          "type": "address"
        }
      ],
      "name": "allowance",
      "outputs": [
        {
          "internalType": "uint256",
          "name": "remaining",
          "type": "uint256"
        }
      ],
      "stateMutability": "view",
      "type": "function",
      "constant": true
    },
    {
      "inputs": [
        {
          "internalType": "address",
          "name": "spender",
          "type": "address"
        },
        {
          "internalType": "uint256",
          "name": "tokens",
          "type": "uint256"
        }
      ],
      "name": "approve",
      "outputs": [
        {
          "internalType": "bool",
          "name": "success",
          "type": "bool"
        }
      ],
      "stateMutability": "nonpayable",
      "type": "function"
    },
    {
      "inputs": [
        {
          "internalType": "address",
          "name": "to",
          "type": "address"
        },
        {
          "internalType": "uint256",
          "name": "tokens",
          "type": "uint256"
        }
      ],
      "name": "transfer",
      "outputs": [
        {
          "internalType": "bool",
          "name": "success",
          "type": "bool"
        }
      ],
      "stateMutability": "nonpayable",
      "type": "function"
    },
    {
      "inputs": [
        {
          "internalType": "address",
          "name": "from",
          "type": "address"
        },
        {
          "internalType": "address",
          "name": "to",
          "type": "address"
        },
        {
          "internalType": "uint256",
          "name": "tokens",
          "type": "uint256"
        }
      ],
      "name": "transferFrom",
      "outputs": [
        {
          "internalType": "bool",
          "name": "success",
          "type": "bool"
        }
      ],
      "stateMutability": "nonpayable",
      "type": "function"
    },
    {
      "inputs": [],
      "name": "totalSupply",
      "outputs": [
        {
          "internalType": "uint256",
          "name": "",
          "type": "uint256"
        }
      ],
      "stateMutability": "view",
      "type": "function",
      "constant": true
    },
    {
      "inputs": [
        {
          "internalType": "address",
          "name": "tokenOwner",
          "type": "address"
        }
      ],
      "name": "balanceOf",
      "outputs": [
        {
          "internalType": "uint256",
          "name": "balance",
          "type": "uint256"
        }
      ],
      "stateMutability": "view",
      "type": "function",
      "constant": true
    },
    {
      "inputs": [
        {
          "internalType": "int256[50]",
          "name": "queryVec",
          "type": "int256[50]"
        },
        {
          "internalType": "int256[50]",
          "name": "answerVec",
          "type": "int256[50]"
        }
      ],
      "name": "mint",
      "outputs": [
        {
          "internalType": "bool",
          "name": "",
          "type": "bool"
        }
      ],
      "stateMutability": "nonpayable",
      "type": "function"
    }
  ],
  "bytecode": "0x60806040526040518060400160405280600681526020017f465554555245000000000000000000000000000000000000000000000000000081525060009080519060200190620000519291906200010b565b506040518060400160405280600381526020017f4654520000000000000000000000000000000000000000000000000000000000815250600190805190602001906200009f9291906200010b565b506008600260006101000a81548160ff021916908360ff16021790555033600460006101000a81548173ffffffffffffffffffffffffffffffffffffffff021916908373ffffffffffffffffffffffffffffffffffffffff160217905550600060038190555062000220565b8280546200011990620001bb565b90600052602060002090601f0160209004810192826200013d576000855562000189565b82601f106200015857805160ff191683800117855562000189565b8280016001018555821562000189579182015b82811115620001885782518255916020019190600101906200016b565b5b5090506200019891906200019c565b5090565b5b80821115620001b75760008160009055506001016200019d565b5090565b60006002820490506001821680620001d457607f821691505b60208210811415620001eb57620001ea620001f1565b5b50919050565b7f4e487b7100000000000000000000000000000000000000000000000000000000600052602260045260246000fd5b6121ef80620002306000396000f3fe608060405234801561001057600080fd5b50600436106100b45760003560e01c806370a082311161007157806370a08231146101915780638da5cb5b146101c157806395d89b41146101df578063a9059cbb146101fd578063dd62ed3e1461022d578063df6747ab1461025d576100b4565b806306fdde03146100b9578063095ea7b3146100d757806318160ddd1461010757806323b872dd14610125578063313ce567146101555780633eaaf86b14610173575b600080fd5b6100c161028d565b6040516100ce9190611816565b60405180910390f35b6100f160048036038101906100ec9190611471565b61031b565b6040516100fe91906117fb565b60405180910390f35b61010f610450565b60405161011c9190611978565b60405180910390f35b61013f600480360381019061013a9190611422565b6104a4565b60405161014c91906117fb565b60405180910390f35b61015d610997565b60405161016a9190611993565b60405180910390f35b61017b6109aa565b6040516101889190611978565b60405180910390f35b6101ab60048036038101906101a691906113bd565b6109b0565b6040516101b89190611978565b60405180910390f35b6101c96109f9565b6040516101d691906117e0565b60405180910390f35b6101e7610a1f565b6040516101f49190611816565b60405180910390f35b61021760048036038101906102129190611471565b610aad565b60405161022491906117fb565b60405180910390f35b610247600480360381019061024291906113e6565b610ce8565b6040516102549190611978565b60405180910390f35b610277600480360381019061027291906114ad565b610d6f565b60405161028491906117fb565b60405180910390f35b6000805461029a9061201f565b80601f01602080910402602001604051908101604052809291908181526020018280546102c69061201f565b80156103135780601f106102e857610100808354040283529160200191610313565b820191906000526020600020905b8154815290600101906020018083116102f657829003601f168201915b505050505081565b600080821015610360576040517f08c379a000000000000000000000000000000000000000000000000000000000815260040161035790611958565b60405180910390fd5b81600660003373ffffffffffffffffffffffffffffffffffffffff1673ffffffffffffffffffffffffffffffffffffffff16815260200190815260200160002060008573ffffffffffffffffffffffffffffffffffffffff1673ffffffffffffffffffffffffffffffffffffffff168152602001908152602001600020819055508273ffffffffffffffffffffffffffffffffffffffff163373ffffffffffffffffffffffffffffffffffffffff167f8c5be1e5ebec7d5bd14f71427d1e84f3dd0314c0f7b2291e5b200ac8c7c3b9258460405161043e9190611978565b60405180910390a36001905092915050565b6000600560008073ffffffffffffffffffffffffffffffffffffffff1673ffffffffffffffffffffffffffffffffffffffff1681526020019081526020016000205460035461049f9190611f59565b905090565b60008073ffffffffffffffffffffffffffffffffffffffff168373ffffffffffffffffffffffffffffffffffffffff161415610515576040517f08c379a000000000000000000000000000000000000000000000000000000000815260040161050c906118d8565b60405180910390fd5b600073ffffffffffffffffffffffffffffffffffffffff168473ffffffffffffffffffffffffffffffffffffffff161415610585576040517f08c379a000000000000000000000000000000000000000000000000000000000815260040161057c906118d8565b60405180910390fd5b600082116105c8576040517f08c379a00000000000000000000000000000000000000000000000000000000081526004016105bf90611958565b60405180910390fd5b600560008573ffffffffffffffffffffffffffffffffffffffff1673ffffffffffffffffffffffffffffffffffffffff1681526020019081526020016000205482111561064a576040517f08c379a0000000000000000000000000000000000000000000000000000000008152600401610641906118b8565b60405180910390fd5b600660008573ffffffffffffffffffffffffffffffffffffffff1673ffffffffffffffffffffffffffffffffffffffff16815260200190815260200160002060003373ffffffffffffffffffffffffffffffffffffffff1673ffffffffffffffffffffffffffffffffffffffff16815260200190815260200160002054821115610709576040517f08c379a000000000000000000000000000000000000000000000000000000000815260040161070090611898565b60405180910390fd5b610752600560008673ffffffffffffffffffffffffffffffffffffffff1673ffffffffffffffffffffffffffffffffffffffff16815260200190815260200160002054836111da565b600560008673ffffffffffffffffffffffffffffffffffffffff1673ffffffffffffffffffffffffffffffffffffffff1681526020019081526020016000208190555061081b600660008673ffffffffffffffffffffffffffffffffffffffff1673ffffffffffffffffffffffffffffffffffffffff16815260200190815260200160002060003373ffffffffffffffffffffffffffffffffffffffff1673ffffffffffffffffffffffffffffffffffffffff16815260200190815260200160002054836111da565b600660008673ffffffffffffffffffffffffffffffffffffffff1673ffffffffffffffffffffffffffffffffffffffff16815260200190815260200160002060003373ffffffffffffffffffffffffffffffffffffffff1673ffffffffffffffffffffffffffffffffffffffff168152602001908152602001600020819055506108e4600560008573ffffffffffffffffffffffffffffffffffffffff1673ffffffffffffffffffffffffffffffffffffffff1681526020019081526020016000205483611239565b600560008573ffffffffffffffffffffffffffffffffffffffff1673ffffffffffffffffffffffffffffffffffffffff168152602001908152602001600020819055508273ffffffffffffffffffffffffffffffffffffffff168473ffffffffffffffffffffffffffffffffffffffff167fddf252ad1be2c89b69c2b068fc378daa952ba7f163c4a11628f55a4df523b3ef846040516109849190611978565b60405180910390a3600190509392505050565b600260009054906101000a900460ff1681565b60035481565b6000600560008373ffffffffffffffffffffffffffffffffffffffff1673ffffffffffffffffffffffffffffffffffffffff168152602001908152602001600020549050919050565b600460009054906101000a900473ffffffffffffffffffffffffffffffffffffffff1681565b60018054610a2c9061201f565b80601f0160208091040260200160405190810160405280929190818152602001828054610a589061201f565b8015610aa55780601f10610a7a57610100808354040283529160200191610aa5565b820191906000526020600020905b815481529060010190602001808311610a8857829003601f168201915b505050505081565b60008073ffffffffffffffffffffffffffffffffffffffff168373ffffffffffffffffffffffffffffffffffffffff161415610b1e576040517f08c379a0000000000000000000000000000000000000000000000000000000008152600401610b15906118d8565b60405180910390fd5b60008211610b61576040517f08c379a0000000000000000000000000000000000000000000000000000000008152600401610b5890611938565b60405180910390fd5b610baa600560003373ffffffffffffffffffffffffffffffffffffffff1673ffffffffffffffffffffffffffffffffffffffff16815260200190815260200160002054836111da565b600560003373ffffffffffffffffffffffffffffffffffffffff1673ffffffffffffffffffffffffffffffffffffffff16815260200190815260200160002081905550610c36600560008573ffffffffffffffffffffffffffffffffffffffff1673ffffffffffffffffffffffffffffffffffffffff1681526020019081526020016000205483611239565b600560008573ffffffffffffffffffffffffffffffffffffffff1673ffffffffffffffffffffffffffffffffffffffff168152602001908152602001600020819055508273ffffffffffffffffffffffffffffffffffffffff163373ffffffffffffffffffffffffffffffffffffffff167fddf252ad1be2c89b69c2b068fc378daa952ba7f163c4a11628f55a4df523b3ef84604051610cd69190611978565b60405180910390a36001905092915050565b6000600660008473ffffffffffffffffffffffffffffffffffffffff1673ffffffffffffffffffffffffffffffffffffffff16815260200190815260200160002060008373ffffffffffffffffffffffffffffffffffffffff1673ffffffffffffffffffffffffffffffffffffffff16815260200190815260200160002054905092915050565b600080600090506000806000805b6032811015610f6c57868160328110610dbf577f4e487b7100000000000000000000000000000000000000000000000000000000600052603260045260246000fd5b6020020151888260328110610dfd577f4e487b7100000000000000000000000000000000000000000000000000000000600052603260045260246000fd5b60200201511415610e1857600182610e159190611a21565b91505b868160328110610e51577f4e487b7100000000000000000000000000000000000000000000000000000000600052603260045260246000fd5b6020020151888260328110610e8f577f4e487b7100000000000000000000000000000000000000000000000000000000600052603260045260246000fd5b6020020151610e9e9190611d54565b85610ea99190611a21565b94506002888260328110610ee6577f4e487b7100000000000000000000000000000000000000000000000000000000600052603260045260246000fd5b6020020151610ef59190611ce8565b84610f009190611a21565b93506002878260328110610f3d577f4e487b7100000000000000000000000000000000000000000000000000000000600052603260045260246000fd5b6020020151610f4c9190611ce8565b83610f579190611a21565b92508080610f6490612051565b915050610d7d565b5060328112610fb0576040517f08c379a0000000000000000000000000000000000000000000000000000000008152600401610fa790611918565b60405180910390fd5b6000610fbb84611297565b90506000610fc884611297565b905060008183610fd89190611a21565b13611018576040517f08c379a000000000000000000000000000000000000000000000000000000000815260040161100f90611858565b60405180910390fd5b600081836110269190611a21565b876110319190611b0b565b606461103d9190611ec5565b905060008113611082576040517f08c379a000000000000000000000000000000000000000000000000000000000815260040161107990611838565b60405180910390fd5b60006001600354662386f26fc1000061109b9190611ab5565b662386f26fc10000846110ae9190611e6b565b6110b89190611b75565b6110c29190611ab5565b90506110d060035482611239565b60038190555061111f600560003373ffffffffffffffffffffffffffffffffffffffff1673ffffffffffffffffffffffffffffffffffffffff1681526020019081526020016000205482611239565b600560003373ffffffffffffffffffffffffffffffffffffffff1673ffffffffffffffffffffffffffffffffffffffff168152602001908152602001600020819055503373ffffffffffffffffffffffffffffffffffffffff16600073ffffffffffffffffffffffffffffffffffffffff167fddf252ad1be2c89b69c2b068fc378daa952ba7f163c4a11628f55a4df523b3ef836040516111c09190611978565b60405180910390a360019850505050505050505092915050565b60008282111561121f576040517f08c379a0000000000000000000000000000000000000000000000000000000008152600401611216906118f8565b60405180910390fd5b6000828461122d9190611f59565b90508091505092915050565b60008082846112489190611ab5565b90508381101561128d576040517f08c379a000000000000000000000000000000000000000000000000000000000815260040161128490611878565b60405180910390fd5b8091505092915050565b60008060026001846112a99190611a21565b6112b39190611b0b565b90508291505b818112156112ee5780915060028182856112d39190611b0b565b6112dd9190611a21565b6112e79190611b0b565b90506112b9565b50919050565b6000611307611302846119df565b6119ae565b9050808285602086028201111561131d57600080fd5b60005b8581101561134d57816113338882611393565b845260208401935060208301925050600181019050611320565b5050509392505050565b60008135905061136681612174565b92915050565b600082601f83011261137d57600080fd5b603261138a8482856112f4565b91505092915050565b6000813590506113a28161218b565b92915050565b6000813590506113b7816121a2565b92915050565b6000602082840312156113cf57600080fd5b60006113dd84828501611357565b91505092915050565b600080604083850312156113f957600080fd5b600061140785828601611357565b925050602061141885828601611357565b9150509250929050565b60008060006060848603121561143757600080fd5b600061144586828701611357565b935050602061145686828701611357565b9250506040611467868287016113a8565b9150509250925092565b6000806040838503121561148457600080fd5b600061149285828601611357565b92505060206114a3858286016113a8565b9150509250929050565b600080610c8083850312156114c157600080fd5b60006114cf8582860161136c565b9250506106406114e18582860161136c565b9150509250929050565b6114f481611f8d565b82525050565b61150381611f9f565b82525050565b600061151482611a05565b61151e8185611a10565b935061152e818560208601611fec565b61153781612156565b840191505092915050565b600061154f601683611a10565b91507f4e6f6e207375636365737366756c20616e737765722e000000000000000000006000830152602082019050919050565b600061158f601383611a10565b91507f43616e6e6f742064697669646520627920302e000000000000000000000000006000830152602082019050919050565b60006115cf601b83611a10565b91507f536166654d6174683a206164646974696f6e206f766572666c6f7700000000006000830152602082019050919050565b600061160f601683611a10565b91507f496e73756666696369656e7420616c6c6f77616e6365000000000000000000006000830152602082019050919050565b600061164f601483611a10565b91507f496e73756666696369656e742062616c616e63650000000000000000000000006000830152602082019050919050565b600061168f600c83611a10565b91507f4e756c6c206164647265737300000000000000000000000000000000000000006000830152602082019050919050565b60006116cf601e83611a10565b91507f536166654d6174683a207375627472616374696f6e206f766572666c6f7700006000830152602082019050919050565b600061170f601383611a10565b91507f53616d6520696e70757420766563746f72732e000000000000000000000000006000830152602082019050919050565b600061174f600d83611a10565b91507f496e76616c69642056616c7565000000000000000000000000000000000000006000830152602082019050919050565b600061178f600d83611a10565b91507f496e76616c69642076616c7565000000000000000000000000000000000000006000830152602082019050919050565b6117cb81611fd5565b82525050565b6117da81611fdf565b82525050565b60006020820190506117f560008301846114eb565b92915050565b600060208201905061181060008301846114fa565b92915050565b600060208201905081810360008301526118308184611509565b905092915050565b6000602082019050818103600083015261185181611542565b9050919050565b6000602082019050818103600083015261187181611582565b9050919050565b60006020820190508181036000830152611891816115c2565b9050919050565b600060208201905081810360008301526118b181611602565b9050919050565b600060208201905081810360008301526118d181611642565b9050919050565b600060208201905081810360008301526118f181611682565b9050919050565b60006020820190508181036000830152611911816116c2565b9050919050565b6000602082019050818103600083015261193181611702565b9050919050565b6000602082019050818103600083015261195181611742565b9050919050565b6000602082019050818103600083015261197181611782565b9050919050565b600060208201905061198d60008301846117c2565b92915050565b60006020820190506119a860008301846117d1565b92915050565b6000604051905081810181811067ffffffffffffffff821117156119d5576119d4612127565b5b8060405250919050565b600067ffffffffffffffff8211156119fa576119f9612127565b5b602082029050919050565b600081519050919050565b600082825260208201905092915050565b6000611a2c82611fab565b9150611a3783611fab565b9250817f7fffffffffffffffffffffffffffffffffffffffffffffffffffffffffffffff03831360008312151615611a7257611a7161209a565b5b817f8000000000000000000000000000000000000000000000000000000000000000038312600083121615611aaa57611aa961209a565b5b828201905092915050565b6000611ac082611fd5565b9150611acb83611fd5565b9250827fffffffffffffffffffffffffffffffffffffffffffffffffffffffffffffffff03821115611b0057611aff61209a565b5b828201905092915050565b6000611b1682611fab565b9150611b2183611fab565b925082611b3157611b306120c9565b5b600160000383147f800000000000000000000000000000000000000000000000000000000000000083141615611b6a57611b6961209a565b5b828205905092915050565b6000611b8082611fd5565b9150611b8b83611fd5565b925082611b9b57611b9a6120c9565b5b828204905092915050565b6000808291508390505b6001851115611bf057808604811115611bcc57611bcb61209a565b5b6001851615611bdb5780820291505b8081029050611be985612167565b9450611bb0565b94509492505050565b60008260008114611c115760018114611c1b57611c24565b6001915050611ce0565b82915050611ce0565b5081611c335760009050611ce0565b600190506000821360018114611c505760008114611c6857611c7c565b828604831115611c6357611c6261209a565b5b611c7c565b828605831215611c7b57611c7a61209a565b5b5b506001831615611c8a578190505b8182029150611c9883612167565b9250611ca685848484611ba6565b925090508185048111600082131615611cc257611cc161209a565b5b8184058112600082121615611cda57611cd961209a565b5b81810290505b949350505050565b6000611cf382611fab565b9150611cfe83611fdf565b9250611d4c7f7fffffffffffffffffffffffffffffffffffffffffffffffffffffffffffffff7f80000000000000000000000000000000000000000000000000000000000000008585611bf9565b905092915050565b6000611d5f82611fab565b9150611d6a83611fab565b9250827f7fffffffffffffffffffffffffffffffffffffffffffffffffffffffffffffff0482116000841360008413161615611da957611da861209a565b5b817f80000000000000000000000000000000000000000000000000000000000000000583126000841260008413161615611de657611de561209a565b5b827f80000000000000000000000000000000000000000000000000000000000000000582126000841360008412161615611e2357611e2261209a565b5b827f7fffffffffffffffffffffffffffffffffffffffffffffffffffffffffffffff0582126000841260008412161615611e6057611e5f61209a565b5b828202905092915050565b6000611e7682611fd5565b9150611e8183611fd5565b9250817fffffffffffffffffffffffffffffffffffffffffffffffffffffffffffffffff0483118215151615611eba57611eb961209a565b5b828202905092915050565b6000611ed082611fab565b9150611edb83611fab565b9250827f800000000000000000000000000000000000000000000000000000000000000001821260008412151615611f1657611f1561209a565b5b827f7fffffffffffffffffffffffffffffffffffffffffffffffffffffffffffffff018213600084121615611f4e57611f4d61209a565b5b828203905092915050565b6000611f6482611fd5565b9150611f6f83611fd5565b925082821015611f8257611f8161209a565b5b828203905092915050565b6000611f9882611fb5565b9050919050565b60008115159050919050565b6000819050919050565b600073ffffffffffffffffffffffffffffffffffffffff82169050919050565b6000819050919050565b600060ff82169050919050565b60005b8381101561200a578082015181840152602081019050611fef565b83811115612019576000848401525b50505050565b6000600282049050600182168061203757607f821691505b6020821081141561204b5761204a6120f8565b5b50919050565b600061205c82611fd5565b91507fffffffffffffffffffffffffffffffffffffffffffffffffffffffffffffffff82141561208f5761208e61209a565b5b600182019050919050565b7f4e487b7100000000000000000000000000000000000000000000000000000000600052601160045260246000fd5b7f4e487b7100000000000000000000000000000000000000000000000000000000600052601260045260246000fd5b7f4e487b7100000000000000000000000000000000000000000000000000000000600052602260045260246000fd5b7f4e487b7100000000000000000000000000000000000000000000000000000000600052604160045260246000fd5b6000601f19601f8301169050919050565b60008160011c9050919050565b61217d81611f8d565b811461218857600080fd5b50565b61219481611fab565b811461219f57600080fd5b50565b6121ab81611fd5565b81146121b657600080fd5b5056fea2646970667358221220820b5da5a7364f7a374a74f75fc246afba11d6332f9a5e3be2e117c8626f7e3f64736f6c63430008000033",
  "immutableReferences": {},
  "source": "// SPDX-License-Identifier: GPL-3.0\npragma solidity 0.8.0;\n\nabstract contract IERC20 {\n\n\tfunction totalSupply() virtual public view returns (uint);\n\tfunction balanceOf(address tokenOwner) virtual public view returns (uint);\n\tfunction allowance(address tokenOwner, address spender) virtual public view returns (uint);\n\tfunction transfer(address to, uint tokens) virtual public returns (bool);\n\tfunction approve(address spender, uint tokens) virtual public returns (bool);\n\tfunction transferFrom(address from, address to, uint tokens) virtual public returns (bool);\n\n\tevent Transfer(address indexed from, address indexed to, uint tokens);\n\tevent Approval(address indexed tokenOwner, address indexed spender, uint tokens);\n}\n\n\ncontract SafeMath {\n\n\tfunction safeAdd(uint256 a, uint256 b) internal pure returns (uint256) {\n\t\tuint256 c = a + b;\n\t\trequire(c >= a, \"SafeMath: addition overflow\");\n\t\treturn c;\n\t}\n\n\tfunction safeSub(uint256 a, uint256 b) internal pure returns (uint256) {\n\t\trequire(b <= a, \"SafeMath: subtraction overflow\");\n\t\tuint256 c = a - b;\n\t\treturn c;\n\t}\n}\n\n\ncontract FUTURE is IERC20, SafeMath {\n\tstring public name;\n\tstring public symbol;\n\tuint8 public decimals; \n\n\tuint256 public _totalSupply;\n\taddress public owner;\n\n\tmapping(address => uint) balances;\n\tmapping(address => mapping(address => uint)) allowed;\n\n\tconstructor() payable {\n\t\tname = \"FUTURE\";\n\t\tsymbol = \"FTR\";\n\t\tdecimals = 8;\n\t\towner = msg.sender;\n\t\t//_maxSupply = 21000000 * 10 ** uint256(decimals);   // 24 decimals \n\t\t_totalSupply = 0;\n\t\t//balances[msg.sender] = _totalSupply;\n\t\t//emit Transfer(address(0), msg.sender, _totalSupply);\n\t}\n\n\t/**\n\t * @dev allowance : Check approved balance\n\t */\n\tfunction allowance(address tokenOwner, address spender) virtual override public view returns (uint remaining) {\n\t\treturn allowed[tokenOwner][spender];\n\t}\n\n\t/**\n\t * @dev approve : Approve token for spender\n\t */ \n\tfunction approve(address spender, uint tokens) virtual override public returns (bool success) {\n\t\trequire(tokens >= 0, \"Invalid value\");\n\t\tallowed[msg.sender][spender] = tokens;\n\t\temit Approval(msg.sender, spender, tokens);\n\t\treturn true;\n\t}\n\n\t/**\n\t * @dev transfer : Transfer token to another etherum address\n\t */ \n\tfunction transfer(address to, uint tokens) virtual override public returns (bool success) {\n\t\trequire(to != address(0), \"Null address\");                                         \n\t\trequire(tokens > 0, \"Invalid Value\");\n\t\tbalances[msg.sender] = safeSub(balances[msg.sender], tokens);\n\t\tbalances[to] = safeAdd(balances[to], tokens);\n\t\temit Transfer(msg.sender, to, tokens);\n\t\treturn true;\n\t}\n\n\t/**\n\t* @dev transferFrom : Transfer token after approval \n\t*/ \n\tfunction transferFrom(address from, address to, uint tokens) virtual override public returns (bool success) {\n\t\trequire(to != address(0), \"Null address\");\n\t\trequire(from != address(0), \"Null address\");\n\t\trequire(tokens > 0, \"Invalid value\"); \n\t\trequire(tokens <= balances[from], \"Insufficient balance\");\n\t\trequire(tokens <= allowed[from][msg.sender], \"Insufficient allowance\");\n\t\tbalances[from] = safeSub(balances[from], tokens);\n\t\tallowed[from][msg.sender] = safeSub(allowed[from][msg.sender], tokens);\n\t\tbalances[to] = safeAdd(balances[to], tokens);\n\t\temit Transfer(from, to, tokens);\n\t\treturn true;\n\t}\n\n\t/**\n\t* @dev totalSupply : Display total supply of token\n\t*/ \n\tfunction totalSupply() virtual override public view returns (uint) {\n\t\treturn _totalSupply - balances[address(0)];\n\t}\n\n\t/**\n\t* @dev balanceOf : Display token balance of given address\n\t*/ \n\tfunction balanceOf(address tokenOwner) virtual override public view returns (uint balance) {\n\t\treturn balances[tokenOwner];\n\t}\n\n\t/**\n\t* @dev sqrt : get the square root of a number using babylonian method\n\t*/ \n\tfunction sqrt(int x) internal pure returns (int y) {\n\t\tint z = (x + 1) / 2;\n\t\ty = x;\n\t\twhile (z < y) {\n\t\t\ty = z;\n\t\t\tz = (x / z + z) / 2;\n\t\t}\n\t}\n\n\t/**\n\t* @dev mint : To increase number of available tokens\n\t*/ \n\tfunction mint(int[50] memory queryVec, int[50] memory answerVec) public returns (bool) {\n\t\tint dotProduct = 0;\n\t\tint sumQueryVec = 0;\n\t\tint sumAnswerVec = 0;\n\t\tint sameValues = 0;\n\t\tfor(uint i = 0; i < 50; i++) {\n\t\t\tif (queryVec[i] == answerVec[i]) {\n\t\t\t\tsameValues += 1;\n\t\t\t}\n\t\t\tdotProduct = dotProduct + (queryVec[i] * answerVec[i]);\n\t\t\tsumQueryVec = sumQueryVec + (queryVec[i] ** 2);\n\t\t\tsumAnswerVec = sumAnswerVec + (answerVec[i] ** 2);\n\t\t}\n\t\trequire(sameValues < 50, \"Same input vectors.\");\n\t\tint normQueryVec = sqrt(sumQueryVec);\n\t\tint normAnswerVec = sqrt(sumAnswerVec);\n\t\trequire((normQueryVec + normAnswerVec) > 0, \"Cannot divide by 0.\");\n\t\tint cosSim = 100 - ((dotProduct)/(normQueryVec + normAnswerVec));\n\t\trequire(cosSim > 0, \"Non successful answer.\");\n\t\tuint _amount = ((uint(cosSim) * 10000000000000000)/(10000000000000000 + _totalSupply)) + 1;\n\t\t_totalSupply = safeAdd(_totalSupply, _amount);\n\t\tbalances[msg.sender] = safeAdd(balances[msg.sender], _amount);\n\t\temit Transfer(address(0), msg.sender, _amount);\n\t\treturn true;\n\t}\n\n}\n",
  "sourcePath": "/home/god/FUTURE/future-token/contracts/FUTURE.sol",
  "compiler": {
    "name": "solc",
    "version": "0.8.0+commit.c7dfd78e.Emscripten.clang"
  },
  "schemaVersion": "3.3.4",
  "updatedAt": "2021-02-19T17:58:21.255Z",
  "networkType": "ethereum",
  "devdoc": {
    "kind": "dev",
    "methods": {
      "allowance(address,address)": {
        "details": "allowance : Check approved balance"
      },
      "approve(address,uint256)": {
        "details": "approve : Approve token for spender"
      },
      "balanceOf(address)": {
        "details": "balanceOf : Display token balance of given address"
      },
      "mint(int256[50],int256[50])": {
        "details": "mint : To increase number of available tokens"
      },
      "totalSupply()": {
        "details": "totalSupply : Display total supply of token"
      },
      "transfer(address,uint256)": {
        "details": "transfer : Transfer token to another etherum address"
      },
      "transferFrom(address,address,uint256)": {
        "details": "transferFrom : Transfer token after approval "
      }
    },
    "version": 1
  },
  "userdoc": {
    "kind": "user",
    "methods": {},
    "version": 1
  }
}