{
  "contractName": "FUTURE",
  "abi": [
    {
      "inputs": [],
      "stateMutability": "payable",
      "type": "constructor",
      "payable": true
    },
    {
      "anonymous": false,
      "inputs": [
        {
          "indexed": true,
          "internalType": "address",
          "name": "tokenOwner",
          "type": "address"
        },
        {
          "indexed": true,
          "internalType": "address",
          "name": "spender",
          "type": "address"
        },
        {
          "indexed": false,
          "internalType": "uint256",
          "name": "tokens",
          "type": "uint256"
        }
      ],
      "name": "Approval",
      "type": "event"
    },
    {
      "anonymous": false,
      "inputs": [
        {
          "indexed": true,
          "internalType": "address",
          "name": "from",
          "type": "address"
        },
        {
          "indexed": true,
          "internalType": "address",
          "name": "to",
          "type": "address"
        },
        {
          "indexed": false,
          "internalType": "uint256",
          "name": "tokens",
          "type": "uint256"
        }
      ],
      "name": "Transfer",
      "type": "event"
    },
    {
      "inputs": [],
      "name": "_reward",
      "outputs": [
        {
          "internalType": "uint256",
          "name": "",
          "type": "uint256"
        }
      ],
      "stateMutability": "view",
      "type": "function",
      "constant": true
    },
    {
      "inputs": [],
      "name": "_totalSupply",
      "outputs": [
        {
          "internalType": "uint256",
          "name": "",
          "type": "uint256"
        }
      ],
      "stateMutability": "view",
      "type": "function",
      "constant": true
    },
    {
      "inputs": [],
      "name": "decimals",
      "outputs": [
        {
          "internalType": "uint8",
          "name": "",
          "type": "uint8"
        }
      ],
      "stateMutability": "view",
      "type": "function",
      "constant": true
    },
    {
      "inputs": [],
      "name": "name",
      "outputs": [
        {
          "internalType": "string",
          "name": "",
          "type": "string"
        }
      ],
      "stateMutability": "view",
      "type": "function",
      "constant": true
    },
    {
      "inputs": [],
      "name": "owner",
      "outputs": [
        {
          "internalType": "address",
          "name": "",
          "type": "address"
        }
      ],
      "stateMutability": "view",
      "type": "function",
      "constant": true
    },
    {
      "inputs": [],
      "name": "symbol",
      "outputs": [
        {
          "internalType": "string",
          "name": "",
          "type": "string"
        }
      ],
      "stateMutability": "view",
      "type": "function",
      "constant": true
    },
    {
      "inputs": [
        {
          "internalType": "address",
          "name": "tokenOwner",
          "type": "address"
        },
        {
          "internalType": "address",
          "name": "spender",
          "type": "address"
        }
      ],
      "name": "allowance",
      "outputs": [
        {
          "internalType": "uint256",
          "name": "remaining",
          "type": "uint256"
        }
      ],
      "stateMutability": "view",
      "type": "function",
      "constant": true
    },
    {
      "inputs": [
        {
          "internalType": "address",
          "name": "spender",
          "type": "address"
        },
        {
          "internalType": "uint256",
          "name": "tokens",
          "type": "uint256"
        }
      ],
      "name": "approve",
      "outputs": [
        {
          "internalType": "bool",
          "name": "success",
          "type": "bool"
        }
      ],
      "stateMutability": "nonpayable",
      "type": "function"
    },
    {
      "inputs": [
        {
          "internalType": "address",
          "name": "to",
          "type": "address"
        },
        {
          "internalType": "uint256",
          "name": "tokens",
          "type": "uint256"
        }
      ],
      "name": "transfer",
      "outputs": [
        {
          "internalType": "bool",
          "name": "success",
          "type": "bool"
        }
      ],
      "stateMutability": "nonpayable",
      "type": "function"
    },
    {
      "inputs": [
        {
          "internalType": "address",
          "name": "from",
          "type": "address"
        },
        {
          "internalType": "address",
          "name": "to",
          "type": "address"
        },
        {
          "internalType": "uint256",
          "name": "tokens",
          "type": "uint256"
        }
      ],
      "name": "transferFrom",
      "outputs": [
        {
          "internalType": "bool",
          "name": "success",
          "type": "bool"
        }
      ],
      "stateMutability": "nonpayable",
      "type": "function"
    },
    {
      "inputs": [],
      "name": "totalSupply",
      "outputs": [
        {
          "internalType": "uint256",
          "name": "",
          "type": "uint256"
        }
      ],
      "stateMutability": "view",
      "type": "function",
      "constant": true
    },
    {
      "inputs": [
        {
          "internalType": "address",
          "name": "tokenOwner",
          "type": "address"
        }
      ],
      "name": "balanceOf",
      "outputs": [
        {
          "internalType": "uint256",
          "name": "balance",
          "type": "uint256"
        }
      ],
      "stateMutability": "view",
      "type": "function",
      "constant": true
    },
    {
      "inputs": [
        {
          "internalType": "int256[50]",
          "name": "queryVec",
          "type": "int256[50]"
        },
        {
          "internalType": "int256[50]",
          "name": "answerVec",
          "type": "int256[50]"
        }
      ],
      "name": "mint",
      "outputs": [
        {
          "internalType": "bool",
          "name": "",
          "type": "bool"
        }
      ],
      "stateMutability": "nonpayable",
      "type": "function"
    }
  ],
  "bytecode": "0x60806040526040518060400160405280600681526020017f4655545552450000000000000000000000000000000000000000000000000000815250600090805190602001906200005192919062000143565b506040518060400160405280600381526020017f4654520000000000000000000000000000000000000000000000000000000000815250600190805190602001906200009f92919062000143565b506008600260006101000a81548160ff021916908360ff16021790555033600460006101000a81548173ffffffffffffffffffffffffffffffffffffffff021916908373ffffffffffffffffffffffffffffffffffffffff160217905550600260009054906101000a900460ff1660ff16600a6200011e91906200024e565b6301406f406200012f91906200038b565b600381905550606460058190555062000497565b8280546200015190620003f6565b90600052602060002090601f016020900481019282620001755760008555620001c1565b82601f106200019057805160ff1916838001178555620001c1565b82800160010185558215620001c1579182015b82811115620001c0578251825591602001919060010190620001a3565b5b509050620001d09190620001d4565b5090565b5b80821115620001ef576000816000905550600101620001d5565b5090565b6000808291508390505b600185111562000245578086048111156200021d576200021c6200042c565b5b60018516156200022d5780820291505b80810290506200023d856200048a565b9450620001fd565b94509492505050565b60006200025b82620003ec565b91506200026883620003ec565b9250620002977fffffffffffffffffffffffffffffffffffffffffffffffffffffffffffffffff84846200029f565b905092915050565b600082620002b1576001905062000384565b81620002c1576000905062000384565b8160018114620002da5760028114620002e5576200031b565b600191505062000384565b60ff841115620002fa57620002f96200042c565b5b8360020a9150848211156200031457620003136200042c565b5b5062000384565b5060208310610133831016604e8410600b8410161715620003555782820a9050838111156200034f576200034e6200042c565b5b62000384565b620003648484846001620001f3565b925090508184048111156200037e576200037d6200042c565b5b81810290505b9392505050565b60006200039882620003ec565b9150620003a583620003ec565b9250817fffffffffffffffffffffffffffffffffffffffffffffffffffffffffffffffff0483118215151615620003e157620003e06200042c565b5b828202905092915050565b6000819050919050565b600060028204905060018216806200040f57607f821691505b602082108114156200042657620004256200045b565b5b50919050565b7f4e487b7100000000000000000000000000000000000000000000000000000000600052601160045260246000fd5b7f4e487b7100000000000000000000000000000000000000000000000000000000600052602260045260246000fd5b60008160011c9050919050565b61210b80620004a76000396000f3fe608060405234801561001057600080fd5b50600436106100cf5760003560e01c80633eaaf86b1161008c57806395d89b411161006657806395d89b4114610218578063a9059cbb14610236578063dd62ed3e14610266578063df6747ab14610296576100cf565b80633eaaf86b146101ac57806370a08231146101ca5780638da5cb5b146101fa576100cf565b806306fdde03146100d4578063095ea7b3146100f257806318160ddd146101225780631be0717f1461014057806323b872dd1461015e578063313ce5671461018e575b600080fd5b6100dc6102c6565b6040516100e991906117bd565b60405180910390f35b61010c60048036038101906101079190611418565b610354565b60405161011991906117a2565b60405180910390f35b61012a610489565b604051610137919061191f565b60405180910390f35b610148610493565b604051610155919061191f565b60405180910390f35b610178600480360381019061017391906113c9565b610499565b60405161018591906117a2565b60405180910390f35b61019661098c565b6040516101a3919061193a565b60405180910390f35b6101b461099f565b6040516101c1919061191f565b60405180910390f35b6101e460048036038101906101df9190611364565b6109a5565b6040516101f1919061191f565b60405180910390f35b6102026109ee565b60405161020f9190611787565b60405180910390f35b610220610a14565b60405161022d91906117bd565b60405180910390f35b610250600480360381019061024b9190611418565b610aa2565b60405161025d91906117a2565b60405180910390f35b610280600480360381019061027b919061138d565b610cdd565b60405161028d919061191f565b60405180910390f35b6102b060048036038101906102ab9190611454565b610d64565b6040516102bd91906117a2565b60405180910390f35b600080546102d390611f3b565b80601f01602080910402602001604051908101604052809291908181526020018280546102ff90611f3b565b801561034c5780601f106103215761010080835404028352916020019161034c565b820191906000526020600020905b81548152906001019060200180831161032f57829003601f168201915b505050505081565b600080821015610399576040517f08c379a0000000000000000000000000000000000000000000000000000000008152600401610390906118df565b60405180910390fd5b81600760003373ffffffffffffffffffffffffffffffffffffffff1673ffffffffffffffffffffffffffffffffffffffff16815260200190815260200160002060008573ffffffffffffffffffffffffffffffffffffffff1673ffffffffffffffffffffffffffffffffffffffff168152602001908152602001600020819055508273ffffffffffffffffffffffffffffffffffffffff163373ffffffffffffffffffffffffffffffffffffffff167f8c5be1e5ebec7d5bd14f71427d1e84f3dd0314c0f7b2291e5b200ac8c7c3b92584604051610477919061191f565b60405180910390a36001905092915050565b6000600354905090565b60055481565b60008073ffffffffffffffffffffffffffffffffffffffff168373ffffffffffffffffffffffffffffffffffffffff16141561050a576040517f08c379a00000000000000000000000000000000000000000000000000000000081526004016105019061185f565b60405180910390fd5b600073ffffffffffffffffffffffffffffffffffffffff168473ffffffffffffffffffffffffffffffffffffffff16141561057a576040517f08c379a00000000000000000000000000000000000000000000000000000000081526004016105719061185f565b60405180910390fd5b600082116105bd576040517f08c379a00000000000000000000000000000000000000000000000000000000081526004016105b4906118df565b60405180910390fd5b600660008573ffffffffffffffffffffffffffffffffffffffff1673ffffffffffffffffffffffffffffffffffffffff1681526020019081526020016000205482111561063f576040517f08c379a00000000000000000000000000000000000000000000000000000000081526004016106369061183f565b60405180910390fd5b600760008573ffffffffffffffffffffffffffffffffffffffff1673ffffffffffffffffffffffffffffffffffffffff16815260200190815260200160002060003373ffffffffffffffffffffffffffffffffffffffff1673ffffffffffffffffffffffffffffffffffffffff168152602001908152602001600020548211156106fe576040517f08c379a00000000000000000000000000000000000000000000000000000000081526004016106f59061181f565b60405180910390fd5b610747600660008673ffffffffffffffffffffffffffffffffffffffff1673ffffffffffffffffffffffffffffffffffffffff1681526020019081526020016000205483611181565b600660008673ffffffffffffffffffffffffffffffffffffffff1673ffffffffffffffffffffffffffffffffffffffff16815260200190815260200160002081905550610810600760008673ffffffffffffffffffffffffffffffffffffffff1673ffffffffffffffffffffffffffffffffffffffff16815260200190815260200160002060003373ffffffffffffffffffffffffffffffffffffffff1673ffffffffffffffffffffffffffffffffffffffff1681526020019081526020016000205483611181565b600760008673ffffffffffffffffffffffffffffffffffffffff1673ffffffffffffffffffffffffffffffffffffffff16815260200190815260200160002060003373ffffffffffffffffffffffffffffffffffffffff1673ffffffffffffffffffffffffffffffffffffffff168152602001908152602001600020819055506108d9600660008573ffffffffffffffffffffffffffffffffffffffff1673ffffffffffffffffffffffffffffffffffffffff16815260200190815260200160002054836111e0565b600660008573ffffffffffffffffffffffffffffffffffffffff1673ffffffffffffffffffffffffffffffffffffffff168152602001908152602001600020819055508273ffffffffffffffffffffffffffffffffffffffff168473ffffffffffffffffffffffffffffffffffffffff167fddf252ad1be2c89b69c2b068fc378daa952ba7f163c4a11628f55a4df523b3ef84604051610979919061191f565b60405180910390a3600190509392505050565b600260009054906101000a900460ff1681565b60035481565b6000600660008373ffffffffffffffffffffffffffffffffffffffff1673ffffffffffffffffffffffffffffffffffffffff168152602001908152602001600020549050919050565b600460009054906101000a900473ffffffffffffffffffffffffffffffffffffffff1681565b60018054610a2190611f3b565b80601f0160208091040260200160405190810160405280929190818152602001828054610a4d90611f3b565b8015610a9a5780601f10610a6f57610100808354040283529160200191610a9a565b820191906000526020600020905b815481529060010190602001808311610a7d57829003601f168201915b505050505081565b60008073ffffffffffffffffffffffffffffffffffffffff168373ffffffffffffffffffffffffffffffffffffffff161415610b13576040517f08c379a0000000000000000000000000000000000000000000000000000000008152600401610b0a9061185f565b60405180910390fd5b60008211610b56576040517f08c379a0000000000000000000000000000000000000000000000000000000008152600401610b4d906118bf565b60405180910390fd5b610b9f600660003373ffffffffffffffffffffffffffffffffffffffff1673ffffffffffffffffffffffffffffffffffffffff1681526020019081526020016000205483611181565b600660003373ffffffffffffffffffffffffffffffffffffffff1673ffffffffffffffffffffffffffffffffffffffff16815260200190815260200160002081905550610c2b600660008573ffffffffffffffffffffffffffffffffffffffff1673ffffffffffffffffffffffffffffffffffffffff16815260200190815260200160002054836111e0565b600660008573ffffffffffffffffffffffffffffffffffffffff1673ffffffffffffffffffffffffffffffffffffffff168152602001908152602001600020819055508273ffffffffffffffffffffffffffffffffffffffff163373ffffffffffffffffffffffffffffffffffffffff167fddf252ad1be2c89b69c2b068fc378daa952ba7f163c4a11628f55a4df523b3ef84604051610ccb919061191f565b60405180910390a36001905092915050565b6000600760008473ffffffffffffffffffffffffffffffffffffffff1673ffffffffffffffffffffffffffffffffffffffff16815260200190815260200160002060008373ffffffffffffffffffffffffffffffffffffffff1673ffffffffffffffffffffffffffffffffffffffff16815260200190815260200160002054905092915050565b600080600090506000806000805b6032811015610f6157868160328110610db4577f4e487b7100000000000000000000000000000000000000000000000000000000600052603260045260246000fd5b6020020151888260328110610df2577f4e487b7100000000000000000000000000000000000000000000000000000000600052603260045260246000fd5b60200201511415610e0d57600182610e0a91906119c8565b91505b868160328110610e46577f4e487b7100000000000000000000000000000000000000000000000000000000600052603260045260246000fd5b6020020151888260328110610e84577f4e487b7100000000000000000000000000000000000000000000000000000000600052603260045260246000fd5b6020020151610e939190611cca565b85610e9e91906119c8565b94506002888260328110610edb577f4e487b7100000000000000000000000000000000000000000000000000000000600052603260045260246000fd5b6020020151610eea9190611c5e565b84610ef591906119c8565b93506002878260328110610f32577f4e487b7100000000000000000000000000000000000000000000000000000000600052603260045260246000fd5b6020020151610f419190611c5e565b83610f4c91906119c8565b92508080610f5990611f6d565b915050610d72565b5060328112610fa5576040517f08c379a0000000000000000000000000000000000000000000000000000000008152600401610f9c9061189f565b60405180910390fd5b6000610fb08461123e565b90506000610fbd8461123e565b905060008183610fcd91906119c8565b1361100d576040517f08c379a0000000000000000000000000000000000000000000000000000000008152600401611004906117df565b60405180910390fd5b6000818361101b91906119c8565b876110269190611ab2565b6005546110339190611de1565b905060008113611078576040517f08c379a000000000000000000000000000000000000000000000000000000000815260040161106f906118ff565b60405180910390fd5b60008190506110c6600660003373ffffffffffffffffffffffffffffffffffffffff1673ffffffffffffffffffffffffffffffffffffffff16815260200190815260200160002054826111e0565b600660003373ffffffffffffffffffffffffffffffffffffffff1673ffffffffffffffffffffffffffffffffffffffff168152602001908152602001600020819055503373ffffffffffffffffffffffffffffffffffffffff16600073ffffffffffffffffffffffffffffffffffffffff167fddf252ad1be2c89b69c2b068fc378daa952ba7f163c4a11628f55a4df523b3ef83604051611167919061191f565b60405180910390a360019850505050505050505092915050565b6000828211156111c6576040517f08c379a00000000000000000000000000000000000000000000000000000000081526004016111bd9061187f565b60405180910390fd5b600082846111d49190611e75565b90508091505092915050565b60008082846111ef9190611a5c565b905083811015611234576040517f08c379a000000000000000000000000000000000000000000000000000000000815260040161122b906117ff565b60405180910390fd5b8091505092915050565b600080600260018461125091906119c8565b61125a9190611ab2565b90508291505b8181121561129557809150600281828561127a9190611ab2565b61128491906119c8565b61128e9190611ab2565b9050611260565b50919050565b60006112ae6112a984611986565b611955565b905080828560208602820111156112c457600080fd5b60005b858110156112f457816112da888261133a565b8452602084019350602083019250506001810190506112c7565b5050509392505050565b60008135905061130d81612090565b92915050565b600082601f83011261132457600080fd5b603261133184828561129b565b91505092915050565b600081359050611349816120a7565b92915050565b60008135905061135e816120be565b92915050565b60006020828403121561137657600080fd5b6000611384848285016112fe565b91505092915050565b600080604083850312156113a057600080fd5b60006113ae858286016112fe565b92505060206113bf858286016112fe565b9150509250929050565b6000806000606084860312156113de57600080fd5b60006113ec868287016112fe565b93505060206113fd868287016112fe565b925050604061140e8682870161134f565b9150509250925092565b6000806040838503121561142b57600080fd5b6000611439858286016112fe565b925050602061144a8582860161134f565b9150509250929050565b600080610c80838503121561146857600080fd5b600061147685828601611313565b92505061064061148885828601611313565b9150509250929050565b61149b81611ea9565b82525050565b6114aa81611ebb565b82525050565b60006114bb826119ac565b6114c581856119b7565b93506114d5818560208601611f08565b6114de81612072565b840191505092915050565b60006114f66013836119b7565b91507f43616e6e6f742064697669646520627920302e000000000000000000000000006000830152602082019050919050565b6000611536601b836119b7565b91507f536166654d6174683a206164646974696f6e206f766572666c6f7700000000006000830152602082019050919050565b60006115766016836119b7565b91507f496e73756666696369656e7420616c6c6f77616e6365000000000000000000006000830152602082019050919050565b60006115b66014836119b7565b91507f496e73756666696369656e742062616c616e63650000000000000000000000006000830152602082019050919050565b60006115f6600c836119b7565b91507f4e756c6c206164647265737300000000000000000000000000000000000000006000830152602082019050919050565b6000611636601e836119b7565b91507f536166654d6174683a207375627472616374696f6e206f766572666c6f7700006000830152602082019050919050565b60006116766013836119b7565b91507f53616d6520696e70757420766563746f72732e000000000000000000000000006000830152602082019050919050565b60006116b6600d836119b7565b91507f496e76616c69642056616c7565000000000000000000000000000000000000006000830152602082019050919050565b60006116f6600d836119b7565b91507f496e76616c69642076616c7565000000000000000000000000000000000000006000830152602082019050919050565b60006117366016836119b7565b91507f4e6f74207375636365737366756c20616e737765722e000000000000000000006000830152602082019050919050565b61177281611ef1565b82525050565b61178181611efb565b82525050565b600060208201905061179c6000830184611492565b92915050565b60006020820190506117b760008301846114a1565b92915050565b600060208201905081810360008301526117d781846114b0565b905092915050565b600060208201905081810360008301526117f8816114e9565b9050919050565b6000602082019050818103600083015261181881611529565b9050919050565b6000602082019050818103600083015261183881611569565b9050919050565b60006020820190508181036000830152611858816115a9565b9050919050565b60006020820190508181036000830152611878816115e9565b9050919050565b6000602082019050818103600083015261189881611629565b9050919050565b600060208201905081810360008301526118b881611669565b9050919050565b600060208201905081810360008301526118d8816116a9565b9050919050565b600060208201905081810360008301526118f8816116e9565b9050919050565b6000602082019050818103600083015261191881611729565b9050919050565b60006020820190506119346000830184611769565b92915050565b600060208201905061194f6000830184611778565b92915050565b6000604051905081810181811067ffffffffffffffff8211171561197c5761197b612043565b5b8060405250919050565b600067ffffffffffffffff8211156119a1576119a0612043565b5b602082029050919050565b600081519050919050565b600082825260208201905092915050565b60006119d382611ec7565b91506119de83611ec7565b9250817f7fffffffffffffffffffffffffffffffffffffffffffffffffffffffffffffff03831360008312151615611a1957611a18611fb6565b5b817f8000000000000000000000000000000000000000000000000000000000000000038312600083121615611a5157611a50611fb6565b5b828201905092915050565b6000611a6782611ef1565b9150611a7283611ef1565b9250827fffffffffffffffffffffffffffffffffffffffffffffffffffffffffffffffff03821115611aa757611aa6611fb6565b5b828201905092915050565b6000611abd82611ec7565b9150611ac883611ec7565b925082611ad857611ad7611fe5565b5b600160000383147f800000000000000000000000000000000000000000000000000000000000000083141615611b1157611b10611fb6565b5b828205905092915050565b6000808291508390505b6001851115611b6657808604811115611b4257611b41611fb6565b5b6001851615611b515780820291505b8081029050611b5f85612083565b9450611b26565b94509492505050565b60008260008114611b875760018114611b9157611b9a565b6001915050611c56565b82915050611c56565b5081611ba95760009050611c56565b600190506000821360018114611bc65760008114611bde57611bf2565b828604831115611bd957611bd8611fb6565b5b611bf2565b828605831215611bf157611bf0611fb6565b5b5b506001831615611c00578190505b8182029150611c0e83612083565b9250611c1c85848484611b1c565b925090508185048111600082131615611c3857611c37611fb6565b5b8184058112600082121615611c5057611c4f611fb6565b5b81810290505b949350505050565b6000611c6982611ec7565b9150611c7483611efb565b9250611cc27f7fffffffffffffffffffffffffffffffffffffffffffffffffffffffffffffff7f80000000000000000000000000000000000000000000000000000000000000008585611b6f565b905092915050565b6000611cd582611ec7565b9150611ce083611ec7565b9250827f7fffffffffffffffffffffffffffffffffffffffffffffffffffffffffffffff0482116000841360008413161615611d1f57611d1e611fb6565b5b817f80000000000000000000000000000000000000000000000000000000000000000583126000841260008413161615611d5c57611d5b611fb6565b5b827f80000000000000000000000000000000000000000000000000000000000000000582126000841360008412161615611d9957611d98611fb6565b5b827f7fffffffffffffffffffffffffffffffffffffffffffffffffffffffffffffff0582126000841260008412161615611dd657611dd5611fb6565b5b828202905092915050565b6000611dec82611ec7565b9150611df783611ec7565b9250827f800000000000000000000000000000000000000000000000000000000000000001821260008412151615611e3257611e31611fb6565b5b827f7fffffffffffffffffffffffffffffffffffffffffffffffffffffffffffffff018213600084121615611e6a57611e69611fb6565b5b828203905092915050565b6000611e8082611ef1565b9150611e8b83611ef1565b925082821015611e9e57611e9d611fb6565b5b828203905092915050565b6000611eb482611ed1565b9050919050565b60008115159050919050565b6000819050919050565b600073ffffffffffffffffffffffffffffffffffffffff82169050919050565b6000819050919050565b600060ff82169050919050565b60005b83811015611f26578082015181840152602081019050611f0b565b83811115611f35576000848401525b50505050565b60006002820490506001821680611f5357607f821691505b60208210811415611f6757611f66612014565b5b50919050565b6000611f7882611ef1565b91507fffffffffffffffffffffffffffffffffffffffffffffffffffffffffffffffff821415611fab57611faa611fb6565b5b600182019050919050565b7f4e487b7100000000000000000000000000000000000000000000000000000000600052601160045260246000fd5b7f4e487b7100000000000000000000000000000000000000000000000000000000600052601260045260246000fd5b7f4e487b7100000000000000000000000000000000000000000000000000000000600052602260045260246000fd5b7f4e487b7100000000000000000000000000000000000000000000000000000000600052604160045260246000fd5b6000601f19601f8301169050919050565b60008160011c9050919050565b61209981611ea9565b81146120a457600080fd5b50565b6120b081611ec7565b81146120bb57600080fd5b50565b6120c781611ef1565b81146120d257600080fd5b5056fea2646970667358221220767acb21662906c1d01c7eaaa9cc4787c6d519a892df6a70a697710723a57d5164736f6c63430008000033",
  "immutableReferences": {},
  "source": "// SPDX-License-Identifier: GPL-3.0\npragma solidity 0.8.0;\n\nabstract contract IERC20 {\n\n\tfunction totalSupply() virtual public view returns (uint);\n\tfunction balanceOf(address tokenOwner) virtual public view returns (uint);\n\tfunction allowance(address tokenOwner, address spender) virtual public view returns (uint);\n\tfunction transfer(address to, uint tokens) virtual public returns (bool);\n\tfunction approve(address spender, uint tokens) virtual public returns (bool);\n\tfunction transferFrom(address from, address to, uint tokens) virtual public returns (bool);\n\n\tevent Transfer(address indexed from, address indexed to, uint tokens);\n\tevent Approval(address indexed tokenOwner, address indexed spender, uint tokens);\n}\n\n\ncontract SafeMath {\n\n\tfunction safeAdd(uint256 a, uint256 b) internal pure returns (uint256) {\n\t\tuint256 c = a + b;\n\t\trequire(c >= a, \"SafeMath: addition overflow\");\n\t\treturn c;\n\t}\n\n\tfunction safeSub(uint256 a, uint256 b) internal pure returns (uint256) {\n\t\trequire(b <= a, \"SafeMath: subtraction overflow\");\n\t\tuint256 c = a - b;\n\t\treturn c;\n\t}\n}\n\n\ncontract FUTURE is IERC20, SafeMath {\n\tstring public name;\n\tstring public symbol;\n\tuint8 public decimals; \n\n\tuint256 public _totalSupply;\n\taddress public owner;\n\tuint public _reward;\n\n\tmapping(address => uint) balances;\n\tmapping(address => mapping(address => uint)) allowed;\n\n\tconstructor() payable {\n\t\tname = \"FUTURE\";\n\t\tsymbol = \"FTR\";\n\t\tdecimals = 8;\n\t\towner = msg.sender;\n\t\t_totalSupply = 21000000 * 10 ** uint256(decimals);   // 24 decimals \n\t\t_reward = 100;\n\t\t//balances[msg.sender] = _totalSupply;\n\t\t//emit Transfer(address(0), msg.sender, _totalSupply);\n\t}\n\n\t/**\n\t * @dev allowance : Check approved balance\n\t */\n\tfunction allowance(address tokenOwner, address spender) virtual override public view returns (uint remaining) {\n\t\treturn allowed[tokenOwner][spender];\n\t}\n\n\t/**\n\t * @dev approve : Approve token for spender\n\t */ \n\tfunction approve(address spender, uint tokens) virtual override public returns (bool success) {\n\t\trequire(tokens >= 0, \"Invalid value\");\n\t\tallowed[msg.sender][spender] = tokens;\n\t\temit Approval(msg.sender, spender, tokens);\n\t\treturn true;\n\t}\n\n\t/**\n\t * @dev transfer : Transfer token to another etherum address\n\t */ \n\tfunction transfer(address to, uint tokens) virtual override public returns (bool success) {\n\t\trequire(to != address(0), \"Null address\");                                         \n\t\trequire(tokens > 0, \"Invalid Value\");\n\t\tbalances[msg.sender] = safeSub(balances[msg.sender], tokens);\n\t\tbalances[to] = safeAdd(balances[to], tokens);\n\t\temit Transfer(msg.sender, to, tokens);\n\t\treturn true;\n\t}\n\n\t/**\n\t* @dev transferFrom : Transfer token after approval \n\t*/ \n\tfunction transferFrom(address from, address to, uint tokens) virtual override public returns (bool success) {\n\t\trequire(to != address(0), \"Null address\");\n\t\trequire(from != address(0), \"Null address\");\n\t\trequire(tokens > 0, \"Invalid value\"); \n\t\trequire(tokens <= balances[from], \"Insufficient balance\");\n\t\trequire(tokens <= allowed[from][msg.sender], \"Insufficient allowance\");\n\t\tbalances[from] = safeSub(balances[from], tokens);\n\t\tallowed[from][msg.sender] = safeSub(allowed[from][msg.sender], tokens);\n\t\tbalances[to] = safeAdd(balances[to], tokens);\n\t\temit Transfer(from, to, tokens);\n\t\treturn true;\n\t}\n\n\t/**\n\t* @dev totalSupply : Display total supply of token\n\t*/ \n\tfunction totalSupply() virtual override public view returns (uint) {\n\t\treturn _totalSupply;\n\t}\n\n\t/**\n\t* @dev balanceOf : Display token balance of given address\n\t*/ \n\tfunction balanceOf(address tokenOwner) virtual override public view returns (uint balance) {\n\t\treturn balances[tokenOwner];\n\t}\n\n\t/**\n\t* @dev sqrt : get the square root of a number using babylonian method\n\t*/ \n\tfunction sqrt(int x) internal pure returns (int y) {\n\t\tint z = (x + 1) / 2;\n\t\ty = x;\n\t\twhile (z < y) {\n\t\t\ty = z;\n\t\t\tz = (x / z + z) / 2;\n\t\t}\n\t}\n\n\t/**\n\t* @dev mint : To increase number of available tokens\n\t*/ \n\tfunction mint(int[50] memory queryVec, int[50] memory answerVec) public returns (bool) {\n\t\tint dotProduct = 0;\n\t\tint sumQueryVec = 0;\n\t\tint sumAnswerVec = 0;\n\t\tint sameValues = 0;\n\t\tfor(uint i = 0; i < 50; i++) {\n\t\t\tif (queryVec[i] == answerVec[i]) {\n\t\t\t\tsameValues += 1;\n\t\t\t}\n\t\t\tdotProduct = dotProduct + (queryVec[i] * answerVec[i]);\n\t\t\tsumQueryVec = sumQueryVec + (queryVec[i] ** 2);\n\t\t\tsumAnswerVec = sumAnswerVec + (answerVec[i] ** 2);\n\t\t}\n\t\trequire(sameValues < 50, \"Same input vectors.\");\n\t\tint normQueryVec = sqrt(sumQueryVec);\n\t\tint normAnswerVec = sqrt(sumAnswerVec);\n\t\trequire((normQueryVec + normAnswerVec) > 0, \"Cannot divide by 0.\");\n\t\tint cosSim = int(_reward) - ((dotProduct)/(normQueryVec + normAnswerVec));\n\t\trequire(cosSim > 0, \"Not successful answer.\");\n\t\tuint _amount = uint(cosSim);\n\t\tbalances[msg.sender] = safeAdd(balances[msg.sender], _amount);\n\t\temit Transfer(address(0), msg.sender, _amount);\n\t\treturn true;\n\t}\n\n}\n",
  "sourcePath": "/home/god/FUTURE/future-token/contracts/FUTURE.sol",
  "compiler": {
    "name": "solc",
    "version": "0.8.0+commit.c7dfd78e.Emscripten.clang"
  },
  "schemaVersion": "3.3.4",
  "updatedAt": "2021-02-17T19:32:16.886Z",
  "networkType": "ethereum",
  "devdoc": {
    "kind": "dev",
    "methods": {
      "allowance(address,address)": {
        "details": "allowance : Check approved balance"
      },
      "approve(address,uint256)": {
        "details": "approve : Approve token for spender"
      },
      "balanceOf(address)": {
        "details": "balanceOf : Display token balance of given address"
      },
      "mint(int256[50],int256[50])": {
        "details": "mint : To increase number of available tokens"
      },
      "totalSupply()": {
        "details": "totalSupply : Display total supply of token"
      },
      "transfer(address,uint256)": {
        "details": "transfer : Transfer token to another etherum address"
      },
      "transferFrom(address,address,uint256)": {
        "details": "transferFrom : Transfer token after approval "
      }
    },
    "version": 1
  },
  "userdoc": {
    "kind": "user",
    "methods": {},
    "version": 1
  }
}